{
  "_format": "hh-sol-artifact-1",
  "contractName": "Valkyries",
  "sourceName": "contracts/Valkyries.sol",
  "abi": [
    {
      "inputs": [
        {
          "internalType": "address",
          "name": "admin_",
          "type": "address"
        },
        {
          "internalType": "address",
          "name": "royaltyReceiver_",
          "type": "address"
        },
        {
          "internalType": "contract ERC721ABurnable",
          "name": "evoContract_",
          "type": "address"
        },
        {
          "internalType": "address[]",
          "name": "preAuthorised_",
          "type": "address[]"
        }
      ],
      "stateMutability": "nonpayable",
      "type": "constructor"
    },
    {
      "inputs": [],
      "name": "AllSalesFinished",
      "type": "error"
    },
    {
      "inputs": [],
      "name": "ApprovalCallerNotOwnerNorApproved",
      "type": "error"
    },
    {
      "inputs": [],
      "name": "ApprovalQueryForNonexistentToken",
      "type": "error"
    },
    {
      "inputs": [],
      "name": "ApprovalToCurrentOwner",
      "type": "error"
    },
    {
      "inputs": [],
      "name": "ApproveToCaller",
      "type": "error"
    },
    {
      "inputs": [],
      "name": "ArrayLengthMismatch",
      "type": "error"
    },
    {
      "inputs": [],
      "name": "BadArrayLength",
      "type": "error"
    },
    {
      "inputs": [],
      "name": "BalanceQueryForZeroAddress",
      "type": "error"
    },
    {
      "inputs": [],
      "name": "IncorrectSaleType",
      "type": "error"
    },
    {
      "inputs": [],
      "name": "MintToZeroAddress",
      "type": "error"
    },
    {
      "inputs": [],
      "name": "MintZeroQuantity",
      "type": "error"
    },
    {
      "inputs": [],
      "name": "MustMintMinimumOne",
      "type": "error"
    },
    {
      "inputs": [],
      "name": "NoActiveSale",
      "type": "error"
    },
    {
      "inputs": [],
      "name": "NoPausedSale",
      "type": "error"
    },
    {
      "inputs": [],
      "name": "NoTrailingSlash",
      "type": "error"
    },
    {
      "inputs": [],
      "name": "NotAdminOrModerator",
      "type": "error"
    },
    {
      "inputs": [],
      "name": "NotAdminOrOwner",
      "type": "error"
    },
    {
      "inputs": [
        {
          "internalType": "uint256",
          "name": "tokenId",
          "type": "uint256"
        }
      ],
      "name": "NotOwnerOfToken",
      "type": "error"
    },
    {
      "inputs": [],
      "name": "OwnerQueryForNonexistentToken",
      "type": "error"
    },
    {
      "inputs": [],
      "name": "SoldOut",
      "type": "error"
    },
    {
      "inputs": [],
      "name": "TransferCallerNotOwnerNorApproved",
      "type": "error"
    },
    {
      "inputs": [],
      "name": "TransferFromIncorrectOwner",
      "type": "error"
    },
    {
      "inputs": [],
      "name": "TransferToNonERC721ReceiverImplementer",
      "type": "error"
    },
    {
      "inputs": [],
      "name": "TransferToZeroAddress",
      "type": "error"
    },
    {
      "inputs": [],
      "name": "URIQueryForNonexistentToken",
      "type": "error"
    },
    {
      "inputs": [
        {
          "internalType": "uint256",
          "name": "limit",
          "type": "uint256"
        }
      ],
      "name": "WalletMintLimit",
      "type": "error"
    },
    {
      "inputs": [],
      "name": "ZeroAdminAddress",
      "type": "error"
    },
    {
      "anonymous": false,
      "inputs": [
        {
          "indexed": true,
          "internalType": "address",
          "name": "owner",
          "type": "address"
        },
        {
          "indexed": true,
          "internalType": "address",
          "name": "approved",
          "type": "address"
        },
        {
          "indexed": true,
          "internalType": "uint256",
          "name": "tokenId",
          "type": "uint256"
        }
      ],
      "name": "Approval",
      "type": "event"
    },
    {
      "anonymous": false,
      "inputs": [
        {
          "indexed": true,
          "internalType": "address",
          "name": "owner",
          "type": "address"
        },
        {
          "indexed": true,
          "internalType": "address",
          "name": "operator",
          "type": "address"
        },
        {
          "indexed": false,
          "internalType": "bool",
          "name": "approved",
          "type": "bool"
        }
      ],
      "name": "ApprovalForAll",
      "type": "event"
    },
    {
      "anonymous": false,
      "inputs": [
        {
          "indexed": false,
          "internalType": "bool",
          "name": "_paused",
          "type": "bool"
        }
      ],
      "name": "IsPaused",
      "type": "event"
    },
    {
      "anonymous": false,
      "inputs": [],
      "name": "MintBegins",
      "type": "event"
    },
    {
      "anonymous": false,
      "inputs": [],
      "name": "MintEnds",
      "type": "event"
    },
    {
      "anonymous": false,
      "inputs": [
        {
          "indexed": true,
          "internalType": "address",
          "name": "previousOwner",
          "type": "address"
        },
        {
          "indexed": true,
          "internalType": "address",
          "name": "newOwner",
          "type": "address"
        }
      ],
      "name": "OwnershipTransferred",
      "type": "event"
    },
    {
      "anonymous": false,
      "inputs": [
        {
          "indexed": true,
          "internalType": "bytes32",
          "name": "role",
          "type": "bytes32"
        },
        {
          "indexed": true,
          "internalType": "bytes32",
          "name": "previousAdminRole",
          "type": "bytes32"
        },
        {
          "indexed": true,
          "internalType": "bytes32",
          "name": "newAdminRole",
          "type": "bytes32"
        }
      ],
      "name": "RoleAdminChanged",
      "type": "event"
    },
    {
      "anonymous": false,
      "inputs": [
        {
          "indexed": true,
          "internalType": "bytes32",
          "name": "role",
          "type": "bytes32"
        },
        {
          "indexed": true,
          "internalType": "address",
          "name": "account",
          "type": "address"
        },
        {
          "indexed": true,
          "internalType": "address",
          "name": "sender",
          "type": "address"
        }
      ],
      "name": "RoleGranted",
      "type": "event"
    },
    {
      "anonymous": false,
      "inputs": [
        {
          "indexed": true,
          "internalType": "bytes32",
          "name": "role",
          "type": "bytes32"
        },
        {
          "indexed": true,
          "internalType": "address",
          "name": "account",
          "type": "address"
        },
        {
          "indexed": true,
          "internalType": "address",
          "name": "sender",
          "type": "address"
        }
      ],
      "name": "RoleRevoked",
      "type": "event"
    },
    {
      "anonymous": false,
      "inputs": [
        {
          "indexed": false,
          "internalType": "string",
          "name": "_baseURI_",
          "type": "string"
        }
      ],
      "name": "SetBaseURI",
      "type": "event"
    },
    {
      "anonymous": false,
      "inputs": [
        {
          "indexed": false,
          "internalType": "enum SaleState.State",
          "name": "_state",
          "type": "uint8"
        }
      ],
      "name": "StateOfSale",
      "type": "event"
    },
    {
      "anonymous": false,
      "inputs": [
        {
          "indexed": true,
          "internalType": "address",
          "name": "from",
          "type": "address"
        },
        {
          "indexed": true,
          "internalType": "address",
          "name": "to",
          "type": "address"
        },
        {
          "indexed": true,
          "internalType": "uint256",
          "name": "tokenId",
          "type": "uint256"
        }
      ],
      "name": "Transfer",
      "type": "event"
    },
    {
      "anonymous": false,
      "inputs": [
        {
          "indexed": false,
          "internalType": "string",
          "name": "_saleType",
          "type": "string"
        }
      ],
      "name": "TypeOfSale",
      "type": "event"
    },
    {
      "inputs": [],
      "name": "DEFAULT_ADMIN_ROLE",
      "outputs": [
        {
          "internalType": "bytes32",
          "name": "",
          "type": "bytes32"
        }
      ],
      "stateMutability": "view",
      "type": "function"
    },
    {
      "inputs": [],
      "name": "MAX_MINT",
      "outputs": [
        {
          "internalType": "uint32",
          "name": "",
          "type": "uint32"
        }
      ],
      "stateMutability": "view",
      "type": "function"
    },
    {
      "inputs": [],
      "name": "MAX_SUPPLY",
      "outputs": [
        {
          "internalType": "uint32",
          "name": "",
          "type": "uint32"
        }
      ],
      "stateMutability": "view",
      "type": "function"
    },
    {
      "inputs": [],
      "name": "MINT_SUPPLY",
      "outputs": [
        {
          "internalType": "uint32",
          "name": "",
          "type": "uint32"
        }
      ],
      "stateMutability": "view",
      "type": "function"
    },
    {
      "inputs": [],
      "name": "MODERATOR_ROLE",
      "outputs": [
        {
          "internalType": "bytes32",
          "name": "",
          "type": "bytes32"
        }
      ],
      "stateMutability": "view",
      "type": "function"
    },
    {
      "inputs": [
        {
          "internalType": "address[]",
          "name": "to_",
          "type": "address[]"
        },
        {
          "internalType": "uint32[]",
          "name": "quantity_",
          "type": "uint32[]"
        }
      ],
      "name": "airdrop",
      "outputs": [],
      "stateMutability": "nonpayable",
      "type": "function"
    },
    {
      "inputs": [
        {
          "internalType": "address",
          "name": "to",
          "type": "address"
        },
        {
          "internalType": "uint256",
          "name": "tokenId",
          "type": "uint256"
        }
      ],
      "name": "approve",
      "outputs": [],
      "stateMutability": "nonpayable",
      "type": "function"
    },
    {
      "inputs": [
        {
          "internalType": "address",
          "name": "owner",
          "type": "address"
        }
      ],
      "name": "balanceOf",
      "outputs": [
        {
          "internalType": "uint256",
          "name": "",
          "type": "uint256"
        }
      ],
      "stateMutability": "view",
      "type": "function"
    },
    {
      "inputs": [
        {
          "internalType": "uint256",
          "name": "tokenId",
          "type": "uint256"
        }
      ],
      "name": "burn",
      "outputs": [],
      "stateMutability": "nonpayable",
      "type": "function"
    },
    {
      "inputs": [],
      "name": "contractURI",
      "outputs": [
        {
          "internalType": "string",
          "name": "",
          "type": "string"
        }
      ],
      "stateMutability": "view",
      "type": "function"
    },
    {
      "inputs": [],
      "name": "endMint",
      "outputs": [],
      "stateMutability": "nonpayable",
      "type": "function"
    },
    {
      "inputs": [
        {
          "internalType": "uint256",
          "name": "tokenId",
          "type": "uint256"
        }
      ],
      "name": "getApproved",
      "outputs": [
        {
          "internalType": "address",
          "name": "",
          "type": "address"
        }
      ],
      "stateMutability": "view",
      "type": "function"
    },
    {
      "inputs": [
        {
          "internalType": "bytes32",
          "name": "role",
          "type": "bytes32"
        }
      ],
      "name": "getRoleAdmin",
      "outputs": [
        {
          "internalType": "bytes32",
          "name": "",
          "type": "bytes32"
        }
      ],
      "stateMutability": "view",
      "type": "function"
    },
    {
      "inputs": [],
      "name": "getSaleState",
      "outputs": [
        {
          "internalType": "enum SaleState.State",
          "name": "",
          "type": "uint8"
        }
      ],
      "stateMutability": "view",
      "type": "function"
    },
    {
      "inputs": [],
      "name": "getSaleType",
      "outputs": [
        {
          "internalType": "string",
          "name": "",
          "type": "string"
        }
      ],
      "stateMutability": "view",
      "type": "function"
    },
    {
      "inputs": [
        {
          "internalType": "bytes32",
          "name": "role",
          "type": "bytes32"
        },
        {
          "internalType": "address",
          "name": "account",
          "type": "address"
        }
      ],
      "name": "grantRole",
      "outputs": [],
      "stateMutability": "nonpayable",
      "type": "function"
    },
    {
      "inputs": [
        {
          "internalType": "bytes32",
          "name": "role",
          "type": "bytes32"
        },
        {
          "internalType": "address",
          "name": "account",
          "type": "address"
        }
      ],
      "name": "hasRole",
      "outputs": [
        {
          "internalType": "bool",
          "name": "",
          "type": "bool"
        }
      ],
      "stateMutability": "view",
      "type": "function"
    },
    {
      "inputs": [
        {
          "internalType": "address",
          "name": "_owner",
          "type": "address"
        },
        {
          "internalType": "address",
          "name": "_operator",
          "type": "address"
        }
      ],
      "name": "isApprovedForAll",
      "outputs": [
        {
          "internalType": "bool",
          "name": "isOperator",
          "type": "bool"
        }
      ],
      "stateMutability": "view",
      "type": "function"
    },
    {
      "inputs": [
        {
          "internalType": "uint256[]",
          "name": "tokenIds_",
          "type": "uint256[]"
        }
      ],
      "name": "mint",
      "outputs": [],
      "stateMutability": "nonpayable",
      "type": "function"
    },
    {
      "inputs": [],
      "name": "name",
      "outputs": [
        {
          "internalType": "string",
          "name": "",
          "type": "string"
        }
      ],
      "stateMutability": "view",
      "type": "function"
    },
    {
      "inputs": [],
      "name": "owner",
      "outputs": [
        {
          "internalType": "address",
          "name": "",
          "type": "address"
        }
      ],
      "stateMutability": "view",
      "type": "function"
    },
    {
      "inputs": [
        {
          "internalType": "uint256",
          "name": "tokenId",
          "type": "uint256"
        }
      ],
      "name": "ownerOf",
      "outputs": [
        {
          "internalType": "address",
          "name": "",
          "type": "address"
        }
      ],
      "stateMutability": "view",
      "type": "function"
    },
    {
      "inputs": [],
      "name": "pauseMint",
      "outputs": [],
      "stateMutability": "nonpayable",
      "type": "function"
    },
    {
      "inputs": [
        {
          "internalType": "address",
          "name": "_address",
          "type": "address"
        }
      ],
      "name": "removeAdminPermission",
      "outputs": [],
      "stateMutability": "nonpayable",
      "type": "function"
    },
    {
      "inputs": [],
      "name": "renounceOwnership",
      "outputs": [],
      "stateMutability": "nonpayable",
      "type": "function"
    },
    {
      "inputs": [
        {
          "internalType": "bytes32",
          "name": "role",
          "type": "bytes32"
        },
        {
          "internalType": "address",
          "name": "account",
          "type": "address"
        }
      ],
      "name": "renounceRole",
      "outputs": [],
      "stateMutability": "nonpayable",
      "type": "function"
    },
    {
      "inputs": [
        {
          "internalType": "bytes32",
          "name": "role",
          "type": "bytes32"
        },
        {
          "internalType": "address",
          "name": "account",
          "type": "address"
        }
      ],
      "name": "revokeRole",
      "outputs": [],
      "stateMutability": "nonpayable",
      "type": "function"
    },
    {
      "inputs": [],
      "name": "royaltyBasisPoints",
      "outputs": [
        {
          "internalType": "uint32",
          "name": "",
          "type": "uint32"
        }
      ],
      "stateMutability": "view",
      "type": "function"
    },
    {
      "inputs": [
        {
          "internalType": "uint256",
          "name": "",
          "type": "uint256"
        },
        {
          "internalType": "uint256",
          "name": "salePrice_",
          "type": "uint256"
        }
      ],
      "name": "royaltyInfo",
      "outputs": [
        {
          "internalType": "address",
          "name": "receiver",
          "type": "address"
        },
        {
          "internalType": "uint256",
          "name": "amount",
          "type": "uint256"
        }
      ],
      "stateMutability": "view",
      "type": "function"
    },
    {
      "inputs": [],
      "name": "royaltyReceiver",
      "outputs": [
        {
          "internalType": "address",
          "name": "",
          "type": "address"
        }
      ],
      "stateMutability": "view",
      "type": "function"
    },
    {
      "inputs": [
        {
          "internalType": "address",
          "name": "from",
          "type": "address"
        },
        {
          "internalType": "address",
          "name": "to",
          "type": "address"
        },
        {
          "internalType": "uint256",
          "name": "tokenId",
          "type": "uint256"
        }
      ],
      "name": "safeTransferFrom",
      "outputs": [],
      "stateMutability": "nonpayable",
      "type": "function"
    },
    {
      "inputs": [
        {
          "internalType": "address",
          "name": "from",
          "type": "address"
        },
        {
          "internalType": "address",
          "name": "to",
          "type": "address"
        },
        {
          "internalType": "uint256",
          "name": "tokenId",
          "type": "uint256"
        },
        {
          "internalType": "bytes",
          "name": "_data",
          "type": "bytes"
        }
      ],
      "name": "safeTransferFrom",
      "outputs": [],
      "stateMutability": "nonpayable",
      "type": "function"
    },
    {
      "inputs": [
        {
          "internalType": "address",
          "name": "_address",
          "type": "address"
        }
      ],
      "name": "setAdminPermission",
      "outputs": [],
      "stateMutability": "nonpayable",
      "type": "function"
    },
    {
      "inputs": [
        {
          "internalType": "address",
          "name": "operator",
          "type": "address"
        },
        {
          "internalType": "bool",
          "name": "approved",
          "type": "bool"
        }
      ],
      "name": "setApprovalForAll",
      "outputs": [],
      "stateMutability": "nonpayable",
      "type": "function"
    },
    {
      "inputs": [
        {
          "internalType": "address",
          "name": "authorizedAddress_",
          "type": "address"
        },
        {
          "internalType": "bool",
          "name": "authorized_",
          "type": "bool"
        }
      ],
      "name": "setAuthorizedAddress",
      "outputs": [],
      "stateMutability": "nonpayable",
      "type": "function"
    },
    {
      "inputs": [
        {
          "internalType": "string",
          "name": "baseURI_",
          "type": "string"
        }
      ],
      "name": "setBaseURI",
      "outputs": [],
      "stateMutability": "nonpayable",
      "type": "function"
    },
    {
      "inputs": [
        {
          "internalType": "uint32",
          "name": "royaltyBasisPoints_",
          "type": "uint32"
        }
      ],
      "name": "setRoyaltyBasisPoints",
      "outputs": [],
      "stateMutability": "nonpayable",
      "type": "function"
    },
    {
      "inputs": [
        {
          "internalType": "address",
          "name": "royaltyReceiver_",
          "type": "address"
        }
      ],
      "name": "setRoyaltyReceiver",
      "outputs": [],
      "stateMutability": "nonpayable",
      "type": "function"
    },
    {
      "inputs": [],
      "name": "startMint",
      "outputs": [],
      "stateMutability": "nonpayable",
      "type": "function"
    },
    {
      "inputs": [
        {
          "internalType": "bytes4",
          "name": "interfaceId",
          "type": "bytes4"
        }
      ],
      "name": "supportsInterface",
      "outputs": [
        {
          "internalType": "bool",
          "name": "",
          "type": "bool"
        }
      ],
      "stateMutability": "view",
      "type": "function"
    },
    {
      "inputs": [],
      "name": "symbol",
      "outputs": [
        {
          "internalType": "string",
          "name": "",
          "type": "string"
        }
      ],
      "stateMutability": "view",
      "type": "function"
    },
    {
      "inputs": [
        {
          "internalType": "uint256",
          "name": "tokenId",
          "type": "uint256"
        }
      ],
      "name": "tokenURI",
      "outputs": [
        {
          "internalType": "string",
          "name": "",
          "type": "string"
        }
      ],
      "stateMutability": "view",
      "type": "function"
    },
    {
      "inputs": [],
      "name": "totalSupply",
      "outputs": [
        {
          "internalType": "uint256",
          "name": "",
          "type": "uint256"
        }
      ],
      "stateMutability": "view",
      "type": "function"
    },
    {
      "inputs": [
        {
          "internalType": "address",
          "name": "from",
          "type": "address"
        },
        {
          "internalType": "address",
          "name": "to",
          "type": "address"
        },
        {
          "internalType": "uint256",
          "name": "tokenId",
          "type": "uint256"
        }
      ],
      "name": "transferFrom",
      "outputs": [],
      "stateMutability": "nonpayable",
      "type": "function"
    },
    {
      "inputs": [
        {
          "internalType": "address",
          "name": "newOwner",
          "type": "address"
        }
      ],
      "name": "transferOwnership",
      "outputs": [],
      "stateMutability": "nonpayable",
      "type": "function"
    },
    {
      "inputs": [],
      "name": "unpauseMint",
      "outputs": [],
      "stateMutability": "nonpayable",
      "type": "function"
    }
  ],
  "bytecode": "0x60806040526040518060400160405280600060038111156200004a577f4e487b7100000000000000000000000000000000000000000000000000000000600052602160045260246000fd5b81526020016040518060400160405280600481526020017f4e6f6e6500000000000000000000000000000000000000000000000000000000815250815250600c60008201518160000160006101000a81548160ff02191690836003811115620000dc577f4e487b7100000000000000000000000000000000000000000000000000000000600052602160045260246000fd5b02179055506020820151816001019080519060200190620000ff929190620008ab565b5050506040518060400160405280601881526020017f68747470733a2f2f6170692e6d6173736c6573732e696f2f0000000000000000815250600e90805190602001906200014f929190620008ab565b503480156200015d57600080fd5b5060405162007d8e38038062007d8e833981810160405281019062000183919062000a2b565b6040518060400160405280600981526020017f56616c6b797269657300000000000000000000000000000000000000000000008152506040518060400160405280600481526020017f56414c4b00000000000000000000000000000000000000000000000000000000815250826200021062000204620005b760201b60201c565b620005bf60201b60201c565b60005b81518110156200028757620002718282815181106200025b577f4e487b7100000000000000000000000000000000000000000000000000000000600052603260045260246000fd5b602002602001015160016200068560201b60201c565b80806200027e9062000bc6565b91505062000213565b50508160059080519060200190620002a1929190620008ab565b508060069080519060200190620002ba929190620008ab565b50620002cb620006e060201b60201c565b6003819055505050620003077fafa6d1d9ae999b610a0656ee8060413c305b544fb2b49fed876330363636861760001b620006e560201b60201c565b6200033b7fe09e2b741c0267670a60d80c01cadff606f91aa57389ba692baa49485d3da0e760001b620006e560201b60201c565b6200036f7f668981bf0a156d1de5503ab000636635137735bf72743917557e25e95e8c125160001b620006e560201b60201c565b81600f60006101000a81548173ffffffffffffffffffffffffffffffffffffffff021916908373ffffffffffffffffffffffffffffffffffffffff160217905550620003e47ff63a052a81e56a11f09880c4422ae6a5088abcbe2a4daffd1ce03de5e599771360001b620006e560201b60201c565b620004187ff7e05d27a3521d2061f8b2a07fe4acd5a81b631bc3aa58fb8c4fd34a4e7ce2e560001b620006e560201b60201c565b6200042983620006e860201b60201c565b6200045d7f7a432598518424e05a4b0a06af1d9e7ea451f580b9fb8599450a9c83621496d160001b620006e560201b60201c565b620004917f09517ef4f9b921be10fc59d3e6c34bbb6f9bcb42b1716fa83c6ab7d974ad6fd160001b620006e560201b60201c565b620004a46101f46200072c60201b60201c565b620004d87f7f80502e6c8be99987824f811a0138a53b47016c2ccad9290c44e28065b51afc60001b620006e560201b60201c565b6200050c7fc2d2900a07f380b7898a33d54b2950bc551e334ff8faf8ec139ff70487e3efa860001b620006e560201b60201c565b620005306000801b62000524620005b760201b60201c565b6200075060201b60201c565b620005647f76da7e620b9d564b1d7c62ad3c36064a1e951d37095bc9e7f08ebc9b97f5f7eb60001b620006e560201b60201c565b620005987f945f3b5a9538f4e4a41e810e5b48550f1c06568a5220d9477c1177cde0e2da3e60001b620006e560201b60201c565b620005ad6000801b856200075060201b60201c565b5050505062000ce6565b600033905090565b6000600160009054906101000a900473ffffffffffffffffffffffffffffffffffffffff16905081600160006101000a81548173ffffffffffffffffffffffffffffffffffffffff021916908373ffffffffffffffffffffffffffffffffffffffff1602179055508173ffffffffffffffffffffffffffffffffffffffff168173ffffffffffffffffffffffffffffffffffffffff167f8be0079c531659141344cd1fd0a4f28419497f9722a3daafe3b4186f6b6457e060405160405180910390a35050565b80600260008473ffffffffffffffffffffffffffffffffffffffff1673ffffffffffffffffffffffffffffffffffffffff16815260200190815260200160002060006101000a81548160ff0219169083151502179055505050565b600090565b50565b80600b60006101000a81548173ffffffffffffffffffffffffffffffffffffffff021916908373ffffffffffffffffffffffffffffffffffffffff16021790555050565b80600b60146101000a81548163ffffffff021916908363ffffffff16021790555050565b6200076282826200084160201b60201c565b6200083d57600160008084815260200190815260200160002060000160008373ffffffffffffffffffffffffffffffffffffffff1673ffffffffffffffffffffffffffffffffffffffff16815260200190815260200160002060006101000a81548160ff021916908315150217905550620007e2620005b760201b60201c565b73ffffffffffffffffffffffffffffffffffffffff168173ffffffffffffffffffffffffffffffffffffffff16837f2f8788117e7eff1d82e926ec794901d17c78024a50270940304540a733656f0d60405160405180910390a45b5050565b600080600084815260200190815260200160002060000160008373ffffffffffffffffffffffffffffffffffffffff1673ffffffffffffffffffffffffffffffffffffffff16815260200190815260200160002060009054906101000a900460ff16905092915050565b828054620008b99062000b5a565b90600052602060002090601f016020900481019282620008dd576000855562000929565b82601f10620008f857805160ff191683800117855562000929565b8280016001018555821562000929579182015b82811115620009285782518255916020019190600101906200090b565b5b5090506200093891906200093c565b5090565b5b80821115620009575760008160009055506001016200093d565b5090565b6000620009726200096c8462000ad9565b62000ab0565b905080838252602082019050828560208602820111156200099257600080fd5b60005b85811015620009c65781620009ab8882620009d0565b84526020840193506020830192505060018101905062000995565b5050509392505050565b600081519050620009e18162000cb2565b92915050565b600082601f830112620009f957600080fd5b815162000a0b8482602086016200095b565b91505092915050565b60008151905062000a258162000ccc565b92915050565b6000806000806080858703121562000a4257600080fd5b600062000a5287828801620009d0565b945050602062000a6587828801620009d0565b935050604062000a788782880162000a14565b925050606085015167ffffffffffffffff81111562000a9657600080fd5b62000aa487828801620009e7565b91505092959194509250565b600062000abc62000acf565b905062000aca828262000b90565b919050565b6000604051905090565b600067ffffffffffffffff82111562000af75762000af662000c72565b5b602082029050602081019050919050565b600062000b158262000b30565b9050919050565b600062000b298262000b08565b9050919050565b600073ffffffffffffffffffffffffffffffffffffffff82169050919050565b6000819050919050565b6000600282049050600182168062000b7357607f821691505b6020821081141562000b8a5762000b8962000c43565b5b50919050565b62000b9b8262000ca1565b810181811067ffffffffffffffff8211171562000bbd5762000bbc62000c72565b5b80604052505050565b600062000bd38262000b50565b91507fffffffffffffffffffffffffffffffffffffffffffffffffffffffffffffffff82141562000c095762000c0862000c14565b5b600182019050919050565b7f4e487b7100000000000000000000000000000000000000000000000000000000600052601160045260246000fd5b7f4e487b7100000000000000000000000000000000000000000000000000000000600052602260045260246000fd5b7f4e487b7100000000000000000000000000000000000000000000000000000000600052604160045260246000fd5b6000601f19601f8301169050919050565b62000cbd8162000b08565b811462000cc957600080fd5b50565b62000cd78162000b1c565b811462000ce357600080fd5b50565b6170988062000cf66000396000f3fe608060405234801561001057600080fd5b506004361061028a5760003560e01c80636352211e1161015c578063a22cb465116100ce578063d547741f11610087578063d547741f1461074e578063e8a3d4851461076a578063e985e9c514610788578063f0292a03146107b8578063f2fde38b146107d6578063f8e93ef9146107f25761028a565b8063a22cb465146106a2578063b88d4fde146106be578063bdbd20a5146106da578063c87b56dd146106f6578063cd85cdb514610726578063d1e812a3146107305761028a565b80638dc251e3116101205780638dc251e3146105de57806391d14854146105fa57806395d89b411461062a5780639dfbcde8146106485780639fbc871314610666578063a217fddf146106845761028a565b80636352211e1461053857806370a0823114610568578063715018a614610598578063797669c9146105a25780638da5cb5b146105c05761028a565b806325bdb2a811610200578063404a1f37116101b9578063404a1f371461048e57806342260b5d146104aa57806342842e0e146104c857806342966c68146104e457806355f804b3146105005780635c6fd90b1461051c5761028a565b806325bdb2a8146103df5780632a55205a146103fd5780632be095611461042e5780632f2ff15d1461043857806332cb6b0c1461045457806336568abe146104725761028a565b80631351cf51116102525780631351cf511461033357806318160ddd1461034f5780631a8bd2da1461036d5780631cf015c61461037757806323b872dd14610393578063248a9ca3146103af5761028a565b8063017043a51461028f57806301ffc9a71461029957806306fdde03146102c9578063081812fc146102e7578063095ea7b314610317575b600080fd5b61029761080e565b005b6102b360048036038101906102ae9190616160565b610b11565b6040516102c09190616783565b60405180910390f35b6102d1610cdf565b6040516102de91906167d4565b60405180910390f35b61030160048036038101906102fc91906161f3565b610d71565b60405161030e91906166f3565b60405180910390f35b610331600480360381019061032c9190616005565b610ded565b005b61034d60048036038101906103489190615fc9565b610f94565b005b6103576110b4565b6040516103649190616898565b60405180910390f35b6103756110cb565b005b610391600480360381019061038c9190616258565b61121f565b005b6103ad60048036038101906103a89190615eff565b61133d565b005b6103c960048036038101906103c491906160fb565b61134d565b6040516103d6919061679e565b60405180910390f35b6103e761136c565b6040516103f491906167b9565b60405180910390f35b6104176004803603810190610412919061621c565b611386565b60405161042592919061675a565b60405180910390f35b6104366113ee565b005b610452600480360381019061044d9190616124565b61165e565b005b61045c611687565b60405161046991906168ce565b60405180910390f35b61048c60048036038101906104879190616124565b61168d565b005b6104a860048036038101906104a39190615e71565b611710565b005b6104b2611817565b6040516104bf91906168ce565b60405180910390f35b6104e260048036038101906104dd9190615eff565b61182d565b005b6104fe60048036038101906104f991906161f3565b61184d565b005b61051a600480360381019061051591906161b2565b61185b565b005b61053660048036038101906105319190615e71565b611c17565b005b610552600480360381019061054d91906161f3565b611d1e565b60405161055f91906166f3565b60405180910390f35b610582600480360381019061057d9190615e71565b611d30565b60405161058f9190616898565b60405180910390f35b6105a0611de9565b005b6105aa611e71565b6040516105b7919061679e565b60405180910390f35b6105c8611e95565b6040516105d591906166f3565b60405180910390f35b6105f860048036038101906105f39190615e71565b611ebf565b005b610614600480360381019061060f9190616124565b611fdd565b6040516106219190616783565b60405180910390f35b610632612047565b60405161063f91906167d4565b60405180910390f35b6106506120d9565b60405161065d91906168ce565b60405180910390f35b61066e6120df565b60405161067b91906166f3565b60405180910390f35b61068c612105565b604051610699919061679e565b60405180910390f35b6106bc60048036038101906106b79190615fc9565b61210c565b005b6106d860048036038101906106d39190615f4e565b612284565b005b6106f460048036038101906106ef9190616041565b6122f7565b005b610710600480360381019061070b91906161f3565b6129c2565b60405161071d91906167d4565b60405180910390f35b61072e612b69565b005b610738612cbd565b60405161074591906167d4565b60405180910390f35b61076860048036038101906107639190616124565b612d52565b005b610772612d7b565b60405161077f91906167d4565b60405180910390f35b6107a2600480360381019061079d9190615ec3565b612e27565b6040516107af9190616783565b60405180910390f35b6107c0612fdf565b6040516107cd91906168ce565b60405180910390f35b6107f060048036038101906107eb9190615e71565b612fe4565b005b61080c600480360381019061080791906160b6565b6132e1565b005b610816613e7b565b73ffffffffffffffffffffffffffffffffffffffff16610834611e95565b73ffffffffffffffffffffffffffffffffffffffff16148061086657506108656000801b610860613e7b565b611fdd565b5b61089c576040517f7bb62a2100000000000000000000000000000000000000000000000000000000815260040160405180910390fd5b6108c87f0186fdaa5058c368dbfcd5e0eb2cc264642f75f81d87c81b53c932bc47d8b63d60001b613e83565b6108f47feaea75e22080ddd1a13b291fe0c3b5b1dde4517c671837de82461aaafbab5e5260001b613e83565b6109207f1ac828408a882cde5b70562fb5f2b2d02d0b8f5386a0d011ada61d15a57834c260001b613e83565b6001600381111561095a577f4e487b7100000000000000000000000000000000000000000000000000000000600052602160045260246000fd5b61096261136c565b600381111561099a577f4e487b7100000000000000000000000000000000000000000000000000000000600052602160045260246000fd5b146109fd576109cb7fc3d23c8621ecd3ba9c500d9e14f20b48659b07d2a09decb90c66fd2c8db2df7f60001b613e83565b6040517f8ca755f500000000000000000000000000000000000000000000000000000000815260040160405180910390fd5b610a297fb16c2c7f19255b451a560f6eaac240a792e07b9845d9aaf9f9cdfb709ff9ddc660001b613e83565b610a557f260ef5c5b06559b499fd5b3ca7f9da19984111fa1acfb1e7644bb4327cb7589760001b613e83565b610a817fccd5132636b29868344ef197be6119a17649c42c5187d8869459b259986b0cd060001b613e83565b610a8b6003613e86565b610ab77fba01bb37719197e7f556394e80e4ccef55f3fd0f9f920a18423495067dcb71ec60001b613e83565b610ae37f9c0ec820ad95ec21f25406be258ee99b3489ce6c67146d8ce2949304cf3ac3b860001b613e83565b7faf24d3bccd7e329975f60c4d13b81252ff061649fb46d1c416c9b6a13100bff160405160405180910390a1565b6000610b3f7f684613d8a164e281c6d8e2da75594f6d81e64e41738f907e27aa548b92eff00160001b613e83565b610b6b7f3e58eab857fea0ef31ecad907d65c1cce4c5d49ff182b77de2925ea8e4fa675b60001b613e83565b610b977feb00a053a9bdfeda2d1a5698fdf92edcaf309e024ee5be6228e8d3063466122360001b613e83565b7f7965db0b000000000000000000000000000000000000000000000000000000007bffffffffffffffffffffffffffffffffffffffffffffffffffffffff1916827bffffffffffffffffffffffffffffffffffffffffffffffffffffffff19161480610c6057507f2a55205a000000000000000000000000000000000000000000000000000000007bffffffffffffffffffffffffffffffffffffffffffffffffffffffff1916827bffffffffffffffffffffffffffffffffffffffffffffffffffffffff1916145b80610cc857507fe8a3d485000000000000000000000000000000000000000000000000000000007bffffffffffffffffffffffffffffffffffffffffffffffffffffffff1916827bffffffffffffffffffffffffffffffffffffffffffffffffffffffff1916145b80610cd85750610cd7826140e4565b5b9050919050565b606060058054610cee90616c2e565b80601f0160208091040260200160405190810160405280929190818152602001828054610d1a90616c2e565b8015610d675780601f10610d3c57610100808354040283529160200191610d67565b820191906000526020600020905b815481529060010190602001808311610d4a57829003601f168201915b5050505050905090565b6000610d7c82614176565b610db2576040517fcf4700e400000000000000000000000000000000000000000000000000000000815260040160405180910390fd5b6009600083815260200190815260200160002060009054906101000a900473ffffffffffffffffffffffffffffffffffffffff169050919050565b6000610df8826141d5565b90508073ffffffffffffffffffffffffffffffffffffffff168373ffffffffffffffffffffffffffffffffffffffff161415610e60576040517f943f7b8c00000000000000000000000000000000000000000000000000000000815260040160405180910390fd5b8073ffffffffffffffffffffffffffffffffffffffff16610e7f6142a3565b73ffffffffffffffffffffffffffffffffffffffff1614610ee257610eab81610ea66142a3565b612e27565b610ee1576040517fcfb3b94200000000000000000000000000000000000000000000000000000000815260040160405180910390fd5b5b826009600084815260200190815260200160002060006101000a81548173ffffffffffffffffffffffffffffffffffffffff021916908373ffffffffffffffffffffffffffffffffffffffff160217905550818373ffffffffffffffffffffffffffffffffffffffff168273ffffffffffffffffffffffffffffffffffffffff167f8c5be1e5ebec7d5bd14f71427d1e84f3dd0314c0f7b2291e5b200ac8c7c3b92560405160405180910390a4505050565b610f9c613e7b565b73ffffffffffffffffffffffffffffffffffffffff16610fba611e95565b73ffffffffffffffffffffffffffffffffffffffff161480610fec5750610feb6000801b610fe6613e7b565b611fdd565b5b611022576040517f7bb62a2100000000000000000000000000000000000000000000000000000000815260040160405180910390fd5b61104e7f139946784b62a38fbad4574417dbf7fa735d498cb5e180ab4f24bd494b0f2fa060001b613e83565b61107a7fdc14c0ca5a7427b4959cf65758b20fdf134d149fb1aa12e6feb5bcfaf79d95a360001b613e83565b6110a67f1efee88c8a60ec5a08898aa32e90bcc022a54c00d5ea8afff3d927dc3178d81460001b613e83565b6110b082826142ab565b5050565b60006110be614306565b6004546003540303905090565b6110d3613e7b565b73ffffffffffffffffffffffffffffffffffffffff166110f1611e95565b73ffffffffffffffffffffffffffffffffffffffff16148061112357506111226000801b61111d613e7b565b611fdd565b5b8061115b575061115a7f71f3d55856e4058ed06ee057d79ada615f65cdf5f9ee88181b914225088f834f611155613e7b565b611fdd565b5b611191576040517fc5cca88d00000000000000000000000000000000000000000000000000000000815260040160405180910390fd5b6111bd7ffa67e8ceef18621db93f9e4bde76b8a86f7c5fcbbfd383aeca5229c55c30e02460001b613e83565b6111e97f12a65b50ee9d1d96bb35c42f294e718b80f6512715ffca332ca5b283d5a96d8c60001b613e83565b6112157f3e91b61c28d78f9d86378eaeaadf13c2c10580fc71c9051d9337ce590d0d07c460001b613e83565b61121d61430b565b565b611227613e7b565b73ffffffffffffffffffffffffffffffffffffffff16611245611e95565b73ffffffffffffffffffffffffffffffffffffffff16148061127757506112766000801b611271613e7b565b611fdd565b5b6112ad576040517f7bb62a2100000000000000000000000000000000000000000000000000000000815260040160405180910390fd5b6112d97febd529665f934d0dbf8a072be168a45b11408f62adcb0a354d220bb44c3c874f60001b613e83565b6113057f0b12dfc5bfccca02ee010345cc6d17d482f0b3c11039278a23da93c5beea14c760001b613e83565b6113317f2a37267377b5f845f48439bca8891e645baa601ad6e00d6ebc1434ab1c2f116160001b613e83565b61133a81614455565b50565b611348838383614479565b505050565b6000806000838152602001908152602001600020600101549050919050565b6000600c60000160009054906101000a900460ff16905090565b6000806000612710600b60149054906101000a900463ffffffff1663ffffffff16856113b29190616a6f565b6113bc9190616a3e565b9050600b60009054906101000a900473ffffffffffffffffffffffffffffffffffffffff168192509250509250929050565b6113f6613e7b565b73ffffffffffffffffffffffffffffffffffffffff16611414611e95565b73ffffffffffffffffffffffffffffffffffffffff16148061144657506114456000801b611440613e7b565b611fdd565b5b8061147e575061147d7f71f3d55856e4058ed06ee057d79ada615f65cdf5f9ee88181b914225088f834f611478613e7b565b611fdd565b5b6114b4576040517fc5cca88d00000000000000000000000000000000000000000000000000000000815260040160405180910390fd5b6114e07fe3d82fbc2e6eef31d5dafac4939e5b85454ccc7cd12a89b0a945b804ace6197f60001b613e83565b61150c7f1c3e870c8fc691fd21e10e089db2be5639296458590dbabce2c073aa3010971660001b613e83565b6115387f389d500f16c02b60d2885aac47e152990552dab83bcc76a2c52e9dc37927273060001b613e83565b6115766040518060400160405280600481526020017f4d696e7400000000000000000000000000000000000000000000000000000000815250614823565b6115a27f4f9a8188cf334982b76ff8ac6f3bef95cb73357d6dc60ce38e0a6de16cde7e2960001b613e83565b6115ce7f3e52b1d8752a9fd048856f6934ac8a59f5cabf11af447006eebdcfbaaee7e9b660001b613e83565b6115d86001613e86565b6116047fec794270549390ef19bd5f83b5a8edee1800ba31f2281320f6cbe35eddcdf31260001b613e83565b6116307f86e80b065ecd787e59ba67003a3a42b2513be919a4d03566eb5841d0159e07b760001b613e83565b7f96266d6a53ec58aa3297367be80d53849d07d09d8560baf4c5c8fe89e2aada7560405160405180910390a1565b6116678261134d565b61167881611673613e7b565b61498b565b6116828383614a28565b505050565b61115c81565b611695613e7b565b73ffffffffffffffffffffffffffffffffffffffff168173ffffffffffffffffffffffffffffffffffffffff1614611702576040517f08c379a00000000000000000000000000000000000000000000000000000000081526004016116f990616878565b60405180910390fd5b61170c8282614b08565b5050565b611718613e7b565b73ffffffffffffffffffffffffffffffffffffffff16611736611e95565b73ffffffffffffffffffffffffffffffffffffffff16148061176857506117676000801b611762613e7b565b611fdd565b5b61179e576040517f7bb62a2100000000000000000000000000000000000000000000000000000000815260040160405180910390fd5b80600073ffffffffffffffffffffffffffffffffffffffff168173ffffffffffffffffffffffffffffffffffffffff161415611806576040517f3ef39b8100000000000000000000000000000000000000000000000000000000815260040160405180910390fd5b6118136000801b83614b08565b5050565b600b60149054906101000a900463ffffffff1681565b61184883838360405180602001604052806000815250612284565b505050565b611858816001614be9565b50565b611863613e7b565b73ffffffffffffffffffffffffffffffffffffffff16611881611e95565b73ffffffffffffffffffffffffffffffffffffffff1614806118b357506118b26000801b6118ad613e7b565b611fdd565b5b806118eb57506118ea7f71f3d55856e4058ed06ee057d79ada615f65cdf5f9ee88181b914225088f834f6118e5613e7b565b611fdd565b5b611921576040517fc5cca88d00000000000000000000000000000000000000000000000000000000815260040160405180910390fd5b61194d7f782d6bd87060b77dbb71d49cdada77e3b5ee1b2750629cdfe26a5b25fad1541560001b613e83565b6119797ff7082bac22628a5407ef19e3b0eb90105dffd63b482c60217e73b2953d20955e60001b613e83565b6119a57f40835438e6cbf8f37e4fcab47d45e2b717e3b87a90352f04e25555970897557d60001b613e83565b7f2f000000000000000000000000000000000000000000000000000000000000007effffffffffffffffffffffffffffffffffffffffffffffffffffffffffffff191681600183516119f79190616ac9565b81518110611a2e577f4e487b7100000000000000000000000000000000000000000000000000000000600052603260045260246000fd5b602001015160f81c60f81b7effffffffffffffffffffffffffffffffffffffffffffffffffffffffffffff191614611aea57611a8c7f504de4e64ccfb59433d9f6bfc528a6fd09688bc9ade1fda77b5235dbbaafbbac60001b613e83565b611ab87fcb364d2262b729ad2caf3c14bd0600f12c1158a453afc24f4575b99ae001499060001b613e83565b6040517fa467f6f500000000000000000000000000000000000000000000000000000000815260040160405180910390fd5b611b167faa09665ddd37c6474d9929a990777fd52b0807d7319c33676c6443d22026598a60001b613e83565b611b427fdb3d9a66c2756cf9e97790fec97ec1bae13f7b7cd4bc690263f9d1d576091c5d60001b613e83565b611b6e7f2a3c6dad29c11622caa7db3b4a8d5f6fbfd1d496e4f97580b9c36ec8c414a60160001b613e83565b80600e9080519060200190611b84929190615b78565b50611bb17f9a1e08eb77971b9ded55c5bcee430300ad41e6af37d2b395fa8489d0a12c698860001b613e83565b611bdd7f932cbfc07bfcf9a8aed2e21d18149eedb8e8ea7002e8a478f80a894a9e7c2d5360001b613e83565b7f23c8c9488efebfd474e85a7956de6f39b17c7ab88502d42a623db2d8e382bbaa81604051611c0c91906167d4565b60405180910390a150565b611c1f613e7b565b73ffffffffffffffffffffffffffffffffffffffff16611c3d611e95565b73ffffffffffffffffffffffffffffffffffffffff161480611c6f5750611c6e6000801b611c69613e7b565b611fdd565b5b611ca5576040517f7bb62a2100000000000000000000000000000000000000000000000000000000815260040160405180910390fd5b80600073ffffffffffffffffffffffffffffffffffffffff168173ffffffffffffffffffffffffffffffffffffffff161415611d0d576040517f3ef39b8100000000000000000000000000000000000000000000000000000000815260040160405180910390fd5b611d1a6000801b83614a28565b5050565b6000611d29826141d5565b9050919050565b60008073ffffffffffffffffffffffffffffffffffffffff168273ffffffffffffffffffffffffffffffffffffffff161415611d98576040517f8f4eb60400000000000000000000000000000000000000000000000000000000815260040160405180910390fd5b67ffffffffffffffff600860008473ffffffffffffffffffffffffffffffffffffffff1673ffffffffffffffffffffffffffffffffffffffff16815260200190815260200160002054169050919050565b611df1613e7b565b73ffffffffffffffffffffffffffffffffffffffff16611e0f611e95565b73ffffffffffffffffffffffffffffffffffffffff1614611e65576040517f08c379a0000000000000000000000000000000000000000000000000000000008152600401611e5c90616858565b60405180910390fd5b611e6f6000614ec1565b565b7f71f3d55856e4058ed06ee057d79ada615f65cdf5f9ee88181b914225088f834f81565b6000600160009054906101000a900473ffffffffffffffffffffffffffffffffffffffff16905090565b611ec7613e7b565b73ffffffffffffffffffffffffffffffffffffffff16611ee5611e95565b73ffffffffffffffffffffffffffffffffffffffff161480611f175750611f166000801b611f11613e7b565b611fdd565b5b611f4d576040517f7bb62a2100000000000000000000000000000000000000000000000000000000815260040160405180910390fd5b611f797fcef00ec24f5935b8c7fd3a9aeb6d97050b7999d16dabcf42f51885fcc628466860001b613e83565b611fa57fbe6f5f947455cd35ce11de416eb3eb5f9e337301c220130f40330d06c17eba3e60001b613e83565b611fd17f2ab79268dedebb48084763410167891af54c96fa1800de866972424d5999c1c060001b613e83565b611fda81614f87565b50565b600080600084815260200190815260200160002060000160008373ffffffffffffffffffffffffffffffffffffffff1673ffffffffffffffffffffffffffffffffffffffff16815260200190815260200160002060009054906101000a900460ff16905092915050565b60606006805461205690616c2e565b80601f016020809104026020016040519081016040528092919081815260200182805461208290616c2e565b80156120cf5780601f106120a4576101008083540402835291602001916120cf565b820191906000526020600020905b8154815290600101906020018083116120b257829003601f168201915b5050505050905090565b61045781565b600b60009054906101000a900473ffffffffffffffffffffffffffffffffffffffff1681565b6000801b81565b6121146142a3565b73ffffffffffffffffffffffffffffffffffffffff168273ffffffffffffffffffffffffffffffffffffffff161415612179576040517fb06307db00000000000000000000000000000000000000000000000000000000815260040160405180910390fd5b80600a60006121866142a3565b73ffffffffffffffffffffffffffffffffffffffff1673ffffffffffffffffffffffffffffffffffffffff16815260200190815260200160002060008473ffffffffffffffffffffffffffffffffffffffff1673ffffffffffffffffffffffffffffffffffffffff16815260200190815260200160002060006101000a81548160ff0219169083151502179055508173ffffffffffffffffffffffffffffffffffffffff166122336142a3565b73ffffffffffffffffffffffffffffffffffffffff167f17307eab39ab6107e8899845ad3d59bd9653f200f220920489ca2b5937696c31836040516122789190616783565b60405180910390a35050565b61228f848484614479565b60008373ffffffffffffffffffffffffffffffffffffffff163b146122f1576122ba84848484614fcb565b6122f0576040517fd1a57ed600000000000000000000000000000000000000000000000000000000815260040160405180910390fd5b5b50505050565b6122ff613e7b565b73ffffffffffffffffffffffffffffffffffffffff1661231d611e95565b73ffffffffffffffffffffffffffffffffffffffff16148061234f575061234e6000801b612349613e7b565b611fdd565b5b612385576040517f7bb62a2100000000000000000000000000000000000000000000000000000000815260040160405180910390fd5b61238f828261512b565b61115c63ffffffff166123c47f50d83c111c0544f123d722f25924b98e36f12784e64d3230faf04e349255f14e60001b613e83565b6123f07fa21e403003cdf2c8382217b6658517becb5225bb7b8e0fa158347152d22fd5a160001b613e83565b61241c7f68124bb4fc562c6924e9ee5cc68b6efbd5dee8cc90ce016b539584f0da6d835d60001b613e83565b6000612426615292565b826124319190616ac9565b905061245f7fbbccaedef39aa73a62c7ea8a63946cbc8477f343c91bf81ba4fb9b5cc882ff9760001b613e83565b61248b7f8fafa2c377a37904c920bb584fae73f76b3f0aff420ae30d0ac69c2a1eddb48c60001b613e83565b60008314156124f2576124c07f15078958b10bd88bbf8c52e269b0da812639dafdb677bca2f61f3b1f2d9d789860001b613e83565b6040517f7e89936200000000000000000000000000000000000000000000000000000000815260040160405180910390fd5b61251e7f26069e603426585436fed07e9a2637be09470b1df4527a18b83e1de3800d231260001b613e83565b61254a7f88e51772645c1877740ef44fb768b693f5aed66b172fc60678761b5c5ab2f6fc60001b613e83565b6125767f24f264f0752ba763af86b625a57a8649c161b25c7699824cda8cf4d5cbed88ad60001b613e83565b808311156125dc576125aa7f695553bb4b44a3e87820a93e48f205c935dca53f1efa203f14f7533b0a64e9e960001b613e83565b6040517f52df9fe500000000000000000000000000000000000000000000000000000000815260040160405180910390fd5b6126087f791493362eb4b3761e1714800bfb60da7174313e3d8ac2ec742eb89ba5e5768d60001b613e83565b6126347febe8d1ce395f1d513d2ee920d0be6e3989354f8b001753f9395c83302c9fb59360001b613e83565b6126607f815ae3e436a7648958ea35f0adf3194b9f6f192b9762dd11485113490a26190460001b613e83565b61268c7f4722ce97ea93b22e1f1f4f5add0ee1dc5da083d40d3ce2e1575f30a7123512d260001b613e83565b6126b87f3a726caa31f83c3d2637741324f2a9fe9157a6a1cce56357d780a884e3d408a060001b613e83565b848490508787905014612723576126f17f7c3d7c57b2dcfe7bc9c29d0880faaae5a1bd64a3536bfe9ac94ac549e6e269c860001b613e83565b6040517fa24a13a600000000000000000000000000000000000000000000000000000000815260040160405180910390fd5b61274f7f5377d45aa8bfca1e05b46fb3de49934b3e2bc2b160d77c3cc3ae65cb0706a8fd60001b613e83565b61277b7f2bd966fc0d2912f29de7d3c0c4bc029dfe6bc3d382d1e81706c60140ce2183a260001b613e83565b6127a77f91badee0b3c1c449d599648960328b3a38c987449207f957b9f40e377a6afd3d60001b613e83565b6000878790501415612811576127df7fcf8f9f0e59a3391ce234b58cd76b3b0f9fab8c0f7700c216071a0f0e144e17b660001b613e83565b6040517f3296c17300000000000000000000000000000000000000000000000000000000815260040160405180910390fd5b61283d7f538a81ffc9d4b7b1733a25ac97db293d9440fe035938cd65ce172445148ea6f560001b613e83565b6128697fafea50366759c3054a98aada01190a1d78c90ea526e08597c223c766ef5d6d6760001b613e83565b6128957fc55b1f8dd82ad1f1decf717301a50249c441eeb65a3fd44c2d06b4b16390b49060001b613e83565b60005b878790508110156129b8576128cf7f99130766c0061035fc73e122304a9c9c0ec5de645058744c436e4bc4370c5d4560001b613e83565b6128fb7faacc3449f8c23cfa7818dc653e8961176fc172c1e22ffa810cfe991b321fba9360001b613e83565b6129a5888883818110612937577f4e487b7100000000000000000000000000000000000000000000000000000000600052603260045260246000fd5b905060200201602081019061294c9190615e71565b878784818110612985577f4e487b7100000000000000000000000000000000000000000000000000000000600052603260045260246000fd5b905060200201602081019061299a9190616258565b63ffffffff166152a5565b80806129b090616c91565b915050612898565b5050505050505050565b60606129f07f82f5779ff294d0ecd4925a97ab8907ce689be15fa3365e6647cb68986d3eaf9260001b613e83565b612a1c7fe20e3b4b5984f45fdd2719957b0497aa2c78be2642c8f38a79f7bf407b4afaa760001b613e83565b612a487fb89a2a180258996bad910c8169a9b1e2f75c2c55bc0bff2a1575e63cf13b3f6960001b613e83565b612a5182614176565b612ab357612a817f4876b771c87078a487607b82d674d5774f9f2c7603378bae4f4303bc3359007b60001b613e83565b6040517fa14c4b5000000000000000000000000000000000000000000000000000000000815260040160405180910390fd5b612adf7f8c1877f2bac848da3f07c37a77e05d2216896a5998c7f4ad5297139cec0102bd60001b613e83565b612b0b7fb189366d14ae69da53070db0758de37b813797e3cc8699fdc89552e8eb23738260001b613e83565b612b377f28f4f37b36aded23c0c6cff7080e3c61840c2f9c8d99d1d55495f7baa107766860001b613e83565b600e612b42836152c3565b604051602001612b5392919061667f565b6040516020818303038152906040529050919050565b612b71613e7b565b73ffffffffffffffffffffffffffffffffffffffff16612b8f611e95565b73ffffffffffffffffffffffffffffffffffffffff161480612bc15750612bc06000801b612bbb613e7b565b611fdd565b5b80612bf95750612bf87f71f3d55856e4058ed06ee057d79ada615f65cdf5f9ee88181b914225088f834f612bf3613e7b565b611fdd565b5b612c2f576040517fc5cca88d00000000000000000000000000000000000000000000000000000000815260040160405180910390fd5b612c5b7fa5a122835b7b9cff3704f6acd8cc9815635a91d0c2e8ae8f9fd7da91fc88770a60001b613e83565b612c877fb773026fbe6a33c029fc6578a8e7cc56b37852fdd4298e8de0b346dd366c41fd60001b613e83565b612cb37ffdaf3b5a852cfdef5d0e7d9412d372c001d009220a799d8fe232ee6250bebc2960001b613e83565b612cbb61531d565b565b6060600c6001018054612ccf90616c2e565b80601f0160208091040260200160405190810160405280929190818152602001828054612cfb90616c2e565b8015612d485780601f10612d1d57610100808354040283529160200191612d48565b820191906000526020600020905b815481529060010190602001808311612d2b57829003601f168201915b5050505050905090565b612d5b8261134d565b612d6c81612d67613e7b565b61498b565b612d768383614b08565b505050565b6060612da97f418418543bd8bc889bd37973bd671549097fccc605b7c2263ccacdc01392940760001b613e83565b612dd57fdc2f086442df501a8be500f5028843e7b39c437866511841ed5bd2df2aa70d9260001b613e83565b612e017fba01e5c0f7f279ab5828c08eae7234cdfbd9f63009cd55c2b1a48a095a52b56e60001b613e83565b600e604051602001612e13919061665d565b604051602081830303815290604052905090565b6000612e557fd07a4412d7e7a05f1de0d5a92706b63f403af785ce59a977f137b803282982c360001b613e83565b612e817fec86256d8a988340fe54cd9706d221935ca8b9ec3eed30bf23bad1b7b54b121760001b613e83565b612ead7fca03e60b236a0f98d269b2c521985072a6d2a04df4be5d72dc5e3b8ac2e8dec860001b613e83565b612eb682615467565b15612f4857612ee77f9b027022cf9a2efa1c6091788576cb9e09a3be49f6eb8298f8aa35b98c5b83f660001b613e83565b612f137f760643ef15d31a35bb6aa5b0c09fd6247ae6df6399116a1f3d414567142ad16460001b613e83565b612f3f7ffdf5433c37f099d259bfa69ac60d326a08b73dfc83101ab1e10192a182411bc160001b613e83565b60019050612fd9565b612f747f068a74c603146f142d9d6d7569caa0378055fa38877ae3d94f686542919a78f260001b613e83565b612fa07fed1eba9290c75f8d9866abce117e4bbb582d4a90bcffe782f06b33380e444cdd60001b613e83565b612fcc7f060a55b352cafa62425b67a66632f1e82acaaf195f264900407932c8d7beea3560001b613e83565b612fd683836154bd565b90505b92915050565b600281565b612fec613e7b565b73ffffffffffffffffffffffffffffffffffffffff1661300a611e95565b73ffffffffffffffffffffffffffffffffffffffff1614613060576040517f08c379a000000000000000000000000000000000000000000000000000000000815260040161305790616858565b60405180910390fd5b61308c7f1a6f50e0d0ad73eac5add714c5d07af7480fb6b5b1e44c222dc17aa6e8811a5460001b613e83565b6130b87f186f488d1be7f7bc3ca6bf21b931a7e49d7e60d0eeffd8c333bcb30d5ee3b70d60001b613e83565b6130e47fc8b11437e37aee746da0d511237322d41b3a6dc6faf3b8fa1a51636000eed2bf60001b613e83565b6131107f9c3769d3b8092992e4b458af88fc972511c551589fee0b15cffb976b7415699360001b613e83565b600073ffffffffffffffffffffffffffffffffffffffff168173ffffffffffffffffffffffffffffffffffffffff161415613180576040517f08c379a000000000000000000000000000000000000000000000000000000000815260040161317790616838565b60405180910390fd5b6131ac7f4f2e74fca78abff3ead33fd29b7ea11870a290b518061a31ef4c4f934b933ba360001b613e83565b6131d87ffb9a3b9103fb875aa6654e70773774569753f57449db22dea49aef27219f7ed660001b613e83565b6132047f945a220c4994229c4b7636082b4b9b8858ac57dd20604bd29dfdc1f7a18397c460001b613e83565b6132116000801b82614a28565b61323d7fc5bc6e62015c74ac78f4540000869ffce91d31abce8569e66ae3494c088fa2b860001b613e83565b6132697f2209a8983a60bf9ea8d72df05fdbf3cea3aaa0fff10565b3a9a1c44fdbff376060001b613e83565b61327d6000801b613278611e95565b614b08565b6132a97ff071d33d43156a53b6d98237023e2c0c83e641398b7d30ed03056720eaada49e60001b613e83565b6132d57f46092a02286b24e91bf9deb39e8eaaacdc3621030ae3c3158a3fb252d7ab19ef60001b613e83565b6132de81614ec1565b50565b6040518060400160405280600481526020017f4d696e740000000000000000000000000000000000000000000000000000000081525060016003811115613351577f4e487b7100000000000000000000000000000000000000000000000000000000600052602160045260246000fd5b600c60000160009054906101000a900460ff16600381111561339c577f4e487b7100000000000000000000000000000000000000000000000000000000600052602160045260246000fd5b146133d3576040517f8ca755f500000000000000000000000000000000000000000000000000000000815260040160405180910390fd5b8080519060200120600c6001016040516133ed9190616646565b60405180910390201461342c576040517f53b0e3a800000000000000000000000000000000000000000000000000000000815260040160405180910390fd5b60028383905061343c9190616a3e565b61045763ffffffff166134717f50d83c111c0544f123d722f25924b98e36f12784e64d3230faf04e349255f14e60001b613e83565b61349d7fa21e403003cdf2c8382217b6658517becb5225bb7b8e0fa158347152d22fd5a160001b613e83565b6134c97f68124bb4fc562c6924e9ee5cc68b6efbd5dee8cc90ce016b539584f0da6d835d60001b613e83565b60006134d3615292565b826134de9190616ac9565b905061350c7fbbccaedef39aa73a62c7ea8a63946cbc8477f343c91bf81ba4fb9b5cc882ff9760001b613e83565b6135387f8fafa2c377a37904c920bb584fae73f76b3f0aff420ae30d0ac69c2a1eddb48c60001b613e83565b600083141561359f5761356d7f15078958b10bd88bbf8c52e269b0da812639dafdb677bca2f61f3b1f2d9d789860001b613e83565b6040517f7e89936200000000000000000000000000000000000000000000000000000000815260040160405180910390fd5b6135cb7f26069e603426585436fed07e9a2637be09470b1df4527a18b83e1de3800d231260001b613e83565b6135f77f88e51772645c1877740ef44fb768b693f5aed66b172fc60678761b5c5ab2f6fc60001b613e83565b6136237f24f264f0752ba763af86b625a57a8649c161b25c7699824cda8cf4d5cbed88ad60001b613e83565b80831115613689576136577f695553bb4b44a3e87820a93e48f205c935dca53f1efa203f14f7533b0a64e9e960001b613e83565b6040517f52df9fe500000000000000000000000000000000000000000000000000000000815260040160405180910390fd5b6136b57f791493362eb4b3761e1714800bfb60da7174313e3d8ac2ec742eb89ba5e5768d60001b613e83565b6136e17febe8d1ce395f1d513d2ee920d0be6e3989354f8b001753f9395c83302c9fb59360001b613e83565b61370d7fec91576bbc87b73b9bf3e373c4fdc31a48a910bd23bf60f42ba817755efaeb9d60001b613e83565b6137397fd4bfe1e9dd2d455341ef9ee14f42046904592c6f868e2a89b306d3ab9494e9a460001b613e83565b6137657f9b079429ab124bda0a01757f5cd75df7737b2f59fc4e6159c938f9b26d3042d360001b613e83565b60006002878790506137779190616cda565b1415806137875750600086869050145b15613816576137b87f81a2d04ebaac66293abb434b4e938fa4e784d71075c5ca8780516c40895cf9bf60001b613e83565b6137e47fdd3278834b8ea22693363166652b88ae64aedd7103ec6cbb6b6c5021f23b882c60001b613e83565b6040517f3296c17300000000000000000000000000000000000000000000000000000000815260040160405180910390fd5b6138427f60c4ee5f5594231e34c1ce3ad7b85c9d7bef9e2781a28dba9745e661097b6bcc60001b613e83565b61386d7ea2906f6422824d72956498687b9220ece36fabbed73cf2ad0108d19f02842f60001b613e83565b6138997f6b86a292d2f26ef19cd676feb32b3973eb876ba8f50729edbe37ed8bae9057d660001b613e83565b60006002878790506138ab9190616a3e565b90506138d97f17bb18c2a4bc521d43619a400b27f77240e21d58ea67e3a17d5243b637d97d0460001b613e83565b6139057f0f88278972f358e91a8daa0b02c8735ebd9a09a1f7b80eeb606ded8ce3154a7f60001b613e83565b600263ffffffff168161391e613919613e7b565b615551565b61392891906169e8565b11156139c45761395a7fc660f18c3a612ad5faa3370be657f10a54844eabb6d74613fc135bdd50230d6360001b613e83565b6139867f5a9f8ae2d03e7edcb35880a6c6fc5d44363186f4f61aec78fa4744b2be8f53bd60001b613e83565b60026040517ff48d30dc0000000000000000000000000000000000000000000000000000000081526004016139bb91906168b3565b60405180910390fd5b6139f07f21947aa32707fff5a47f30a88bd9f05028731fd854c3a4e1217626957b1ca19c60001b613e83565b613a1c7f1d76f603d2df1530ad00e1a61afb53c69fe1c2649daf7ecd763717c2bfc0501d60001b613e83565b613a487f039e9c6e20a3eaec00dba557a25354853ee1d3e98e077db31c8f15a2c946f19d60001b613e83565b60005b87879050811015613e0857613a827f79a8d1b9c1e6775df9f5012a4ff25258ff1588ff8f70b45b8a57618e3e8270b060001b613e83565b613aae7f46df6e860b32f7ebf19d313b117f20a13854a20efebdd761d83b8dd85c3bd6ad60001b613e83565b613ab6613e7b565b73ffffffffffffffffffffffffffffffffffffffff16600f60009054906101000a900473ffffffffffffffffffffffffffffffffffffffff1673ffffffffffffffffffffffffffffffffffffffff16636352211e8a8a85818110613b43577f4e487b7100000000000000000000000000000000000000000000000000000000600052603260045260246000fd5b905060200201356040518263ffffffff1660e01b8152600401613b669190616898565b60206040518083038186803b158015613b7e57600080fd5b505afa158015613b92573d6000803e3d6000fd5b505050506040513d601f19601f82011682018060405250810190613bb69190615e9a565b73ffffffffffffffffffffffffffffffffffffffff1614613ca557613bfd7fd5bc84b2b1356bc9b32b8bd4d6890759cec7ad5a05d2ef6d31a68a5d6a4dfbdc60001b613e83565b613c297fd3f3e0aff729f9946cf969b639735e7f656a71069780df061613d9471fae3d3060001b613e83565b878782818110613c62577f4e487b7100000000000000000000000000000000000000000000000000000000600052603260045260246000fd5b905060200201356040517f3b94a199000000000000000000000000000000000000000000000000000000008152600401613c9c9190616898565b60405180910390fd5b613cd17f0bb2aa3cdcbbe68da0f3605f12280c2c0c732bba8cce093cfc1caaee93343ac860001b613e83565b613cfd7f4db015162eb461cec1e3026e0a9496b99576616e04e8c9d08e47752864a97a9e60001b613e83565b613d297ffaf2ae93bfa0f4017634757d7035304482afb3f6970d3e1afa2bde206185071f60001b613e83565b600f60009054906101000a900473ffffffffffffffffffffffffffffffffffffffff1673ffffffffffffffffffffffffffffffffffffffff166342966c68898984818110613da0577f4e487b7100000000000000000000000000000000000000000000000000000000600052603260045260246000fd5b905060200201356040518263ffffffff1660e01b8152600401613dc39190616898565b600060405180830381600087803b158015613ddd57600080fd5b505af1158015613df1573d6000803e3d6000fd5b505050508080613e0090616c91565b915050613a4b565b50613e357f3637ce0d5866911339cd20a67f55b14452ed16db35c33884718f63f0b2ffa21360001b613e83565b613e617f76908cbaadbfa8158174bec34a1c2065b58170ce073af72695d0ea4e4741033160001b613e83565b613e72613e6c613e7b565b826152a5565b50505050505050565b600033905090565b50565b600380811115613ebf577f4e487b7100000000000000000000000000000000000000000000000000000000600052602160045260246000fd5b600c60000160009054906101000a900460ff166003811115613f0a577f4e487b7100000000000000000000000000000000000000000000000000000000600052602160045260246000fd5b1415613f42576040517f1bb9201200000000000000000000000000000000000000000000000000000000815260040160405180910390fd5b80600c60000160006101000a81548160ff02191690836003811115613f90577f4e487b7100000000000000000000000000000000000000000000000000000000600052602160045260246000fd5b0217905550600380811115613fce577f4e487b7100000000000000000000000000000000000000000000000000000000600052602160045260246000fd5b816003811115614007577f4e487b7100000000000000000000000000000000000000000000000000000000600052602160045260246000fd5b1415614098576040518060400160405280600881526020017f46696e6973686564000000000000000000000000000000000000000000000000815250600c600101908051906020019061405b929190615b78565b507f73c24a7893680131e7c50fcccddb220f15bfc9f6968bef4235b6cc5994049124600c60010160405161408f91906167f6565b60405180910390a15b7f115b0a20885b9271082b68a739b15a23986a94c5e2807b824f9ad7dd918f8aeb600c60000160009054906101000a900460ff166040516140d991906167b9565b60405180910390a150565b60006301ffc9a760e01b827bffffffffffffffffffffffffffffffffffffffffffffffffffffffff1916148061413f57506380ac58cd60e01b827bffffffffffffffffffffffffffffffffffffffffffffffffffffffff1916145b8061416f5750635b5e139f60e01b827bffffffffffffffffffffffffffffffffffffffffffffffffffffffff1916145b9050919050565b600081614181614306565b11158015614190575060035482105b80156141ce575060007c0100000000000000000000000000000000000000000000000000000000600760008581526020019081526020016000205416145b9050919050565b600080829050806141e4614306565b1161426c5760035481101561426b5760006007600083815260200190815260200160002054905060007c010000000000000000000000000000000000000000000000000000000082161415614269575b600081141561425f576007600083600190039350838152602001908152602001600020549050614234565b809250505061429e565b505b5b6040517fdf2d9b4200000000000000000000000000000000000000000000000000000000815260040160405180910390fd5b919050565b600033905090565b80600260008473ffffffffffffffffffffffffffffffffffffffff1673ffffffffffffffffffffffffffffffffffffffff16815260200190815260200160002060006101000a81548160ff0219169083151502179055505050565b600090565b60026003811115614345577f4e487b7100000000000000000000000000000000000000000000000000000000600052602160045260246000fd5b600c60000160009054906101000a900460ff166003811115614390577f4e487b7100000000000000000000000000000000000000000000000000000000600052602160045260246000fd5b146143c7576040517f5402932b00000000000000000000000000000000000000000000000000000000815260040160405180910390fd5b6001600c60000160006101000a81548160ff02191690836003811115614416577f4e487b7100000000000000000000000000000000000000000000000000000000600052602160045260246000fd5b02179055507fff4a5dbbab6b1963d10f5edd139f33a7987ecb3c4f65969be77ddba28d946594600060405161444b9190616783565b60405180910390a1565b80600b60146101000a81548163ffffffff021916908363ffffffff16021790555050565b6000614484826141d5565b90508373ffffffffffffffffffffffffffffffffffffffff168173ffffffffffffffffffffffffffffffffffffffff16146144eb576040517fa114810000000000000000000000000000000000000000000000000000000000815260040160405180910390fd5b60008473ffffffffffffffffffffffffffffffffffffffff1661450c6142a3565b73ffffffffffffffffffffffffffffffffffffffff16148061453b575061453a856145356142a3565b612e27565b5b8061458057506145496142a3565b73ffffffffffffffffffffffffffffffffffffffff1661456884610d71565b73ffffffffffffffffffffffffffffffffffffffff16145b9050806145b9576040517f59c896be00000000000000000000000000000000000000000000000000000000815260040160405180910390fd5b600073ffffffffffffffffffffffffffffffffffffffff168473ffffffffffffffffffffffffffffffffffffffff161415614620576040517fea553b3400000000000000000000000000000000000000000000000000000000815260040160405180910390fd5b61462d85858560016155a8565b6009600084815260200190815260200160002060006101000a81549073ffffffffffffffffffffffffffffffffffffffff0219169055600860008673ffffffffffffffffffffffffffffffffffffffff1673ffffffffffffffffffffffffffffffffffffffff168152602001908152602001600020600081546001900391905081905550600860008573ffffffffffffffffffffffffffffffffffffffff1673ffffffffffffffffffffffffffffffffffffffff16815260200190815260200160002060008154600101919050819055507c020000000000000000000000000000000000000000000000000000000060a042901b61472a866155ae565b1717600760008581526020019081526020016000208190555060007c0200000000000000000000000000000000000000000000000000000000831614156147b45760006001840190506000600760008381526020019081526020016000205414156147b25760035481146147b1578260076000838152602001908152602001600020819055505b5b505b828473ffffffffffffffffffffffffffffffffffffffff168673ffffffffffffffffffffffffffffffffffffffff167fddf252ad1be2c89b69c2b068fc378daa952ba7f163c4a11628f55a4df523b3ef60405160405180910390a461481c85858560016155b8565b5050505050565b60038081111561485c577f4e487b7100000000000000000000000000000000000000000000000000000000600052602160045260246000fd5b600c60000160009054906101000a900460ff1660038111156148a7577f4e487b7100000000000000000000000000000000000000000000000000000000600052602160045260246000fd5b14156148df576040517f1bb9201200000000000000000000000000000000000000000000000000000000815260040160405180910390fd5b80600c60010190805190602001906148f8929190615b78565b506000600c60000160006101000a81548160ff02191690836003811115614948577f4e487b7100000000000000000000000000000000000000000000000000000000600052602160045260246000fd5b02179055507f73c24a7893680131e7c50fcccddb220f15bfc9f6968bef4235b6cc5994049124600c60010160405161498091906167f6565b60405180910390a150565b6149958282611fdd565b614a24576149ba8173ffffffffffffffffffffffffffffffffffffffff1660146155be565b6149c88360001c60206155be565b6040516020016149d99291906166b9565b6040516020818303038152906040526040517f08c379a0000000000000000000000000000000000000000000000000000000008152600401614a1b91906167d4565b60405180910390fd5b5050565b614a328282611fdd565b614b0457600160008084815260200190815260200160002060000160008373ffffffffffffffffffffffffffffffffffffffff1673ffffffffffffffffffffffffffffffffffffffff16815260200190815260200160002060006101000a81548160ff021916908315150217905550614aa9613e7b565b73ffffffffffffffffffffffffffffffffffffffff168173ffffffffffffffffffffffffffffffffffffffff16837f2f8788117e7eff1d82e926ec794901d17c78024a50270940304540a733656f0d60405160405180910390a45b5050565b614b128282611fdd565b15614be557600080600084815260200190815260200160002060000160008373ffffffffffffffffffffffffffffffffffffffff1673ffffffffffffffffffffffffffffffffffffffff16815260200190815260200160002060006101000a81548160ff021916908315150217905550614b8a613e7b565b73ffffffffffffffffffffffffffffffffffffffff168173ffffffffffffffffffffffffffffffffffffffff16837ff6391f5c32d9c69d2a47ea670b442974b53935d1edc7fd64eb21e047a839171b60405160405180910390a45b5050565b6000614bf4836141d5565b905060008190508215614cd15760008173ffffffffffffffffffffffffffffffffffffffff16614c226142a3565b73ffffffffffffffffffffffffffffffffffffffff161480614c515750614c5082614c4b6142a3565b612e27565b5b80614c965750614c5f6142a3565b73ffffffffffffffffffffffffffffffffffffffff16614c7e86610d71565b73ffffffffffffffffffffffffffffffffffffffff16145b905080614ccf576040517f59c896be00000000000000000000000000000000000000000000000000000000815260040160405180910390fd5b505b614cdf8160008660016155a8565b6009600085815260200190815260200160002060006101000a81549073ffffffffffffffffffffffffffffffffffffffff0219169055600160806001901b03600860008373ffffffffffffffffffffffffffffffffffffffff1673ffffffffffffffffffffffffffffffffffffffff168152602001908152602001600020600082825401925050819055507c02000000000000000000000000000000000000000000000000000000007c010000000000000000000000000000000000000000000000000000000060a042901b614db4846155ae565b171717600760008681526020019081526020016000208190555060007c020000000000000000000000000000000000000000000000000000000083161415614e3f576000600185019050600060076000838152602001908152602001600020541415614e3d576003548114614e3c578260076000838152602001908152602001600020819055505b5b505b83600073ffffffffffffffffffffffffffffffffffffffff168273ffffffffffffffffffffffffffffffffffffffff167fddf252ad1be2c89b69c2b068fc378daa952ba7f163c4a11628f55a4df523b3ef60405160405180910390a4614ea98160008660016155b8565b60046000815480929190600101919050555050505050565b6000600160009054906101000a900473ffffffffffffffffffffffffffffffffffffffff16905081600160006101000a81548173ffffffffffffffffffffffffffffffffffffffff021916908373ffffffffffffffffffffffffffffffffffffffff1602179055508173ffffffffffffffffffffffffffffffffffffffff168173ffffffffffffffffffffffffffffffffffffffff167f8be0079c531659141344cd1fd0a4f28419497f9722a3daafe3b4186f6b6457e060405160405180910390a35050565b80600b60006101000a81548173ffffffffffffffffffffffffffffffffffffffff021916908373ffffffffffffffffffffffffffffffffffffffff16021790555050565b60008373ffffffffffffffffffffffffffffffffffffffff1663150b7a02614ff16142a3565b8786866040518563ffffffff1660e01b8152600401615013949392919061670e565b602060405180830381600087803b15801561502d57600080fd5b505af192505050801561505e57506040513d601f19601f8201168201806040525081019061505b9190616189565b60015b6150d8573d806000811461508e576040519150601f19603f3d011682016040523d82523d6000602084013e615093565b606091505b506000815114156150d0576040517fd1a57ed600000000000000000000000000000000000000000000000000000000815260040160405180910390fd5b805181602001fd5b63150b7a0260e01b7bffffffffffffffffffffffffffffffffffffffffffffffffffffffff1916817bffffffffffffffffffffffffffffffffffffffffffffffffffffffff191614915050949350505050565b60006151597fbd624fe7cebc9a30378b3d340e61f28db6fd7e71c07a3f052271213c96945be460001b613e83565b6151857fcdc392269e3cbee81be748c44cdff013f1ee389b36dfc047fa69b400c2b87a6660001b613e83565b6151b17f043bde10fe7903e7c54732c0f7a9eeb012fffffe8f8e1d71e8946ae56395334f60001b613e83565b60005b8383905081101561528b576151eb7f354722d0703ac8f79baafa7b1c7fd51bd44b30063c8534a643332c2611efcca560001b613e83565b6152177f736be73606e923040a3642fad7f8470461ea941a7d093a184a1dabc6809ed64460001b613e83565b838382818110615250577f4e487b7100000000000000000000000000000000000000000000000000000000600052603260045260246000fd5b90506020020160208101906152659190616258565b63ffffffff168261527691906169e8565b9150808061528390616c91565b9150506151b4565b5092915050565b600061529c614306565b60035403905090565b6152bf8282604051806020016040528060008152506158b8565b5050565b60606080604051019050806040528082600183039250600a81066030018353600a810490505b801561530957600183039250600a81066030018353600a810490506152e9565b508181036020830392508083525050919050565b60016003811115615357577f4e487b7100000000000000000000000000000000000000000000000000000000600052602160045260246000fd5b600c60000160009054906101000a900460ff1660038111156153a2577f4e487b7100000000000000000000000000000000000000000000000000000000600052602160045260246000fd5b146153d9576040517f8ca755f500000000000000000000000000000000000000000000000000000000815260040160405180910390fd5b6002600c60000160006101000a81548160ff02191690836003811115615428577f4e487b7100000000000000000000000000000000000000000000000000000000600052602160045260246000fd5b02179055507fff4a5dbbab6b1963d10f5edd139f33a7987ecb3c4f65969be77ddba28d946594600160405161545d9190616783565b60405180910390a1565b6000600260008373ffffffffffffffffffffffffffffffffffffffff1673ffffffffffffffffffffffffffffffffffffffff16815260200190815260200160002060009054906101000a900460ff169050919050565b6000600a60008473ffffffffffffffffffffffffffffffffffffffff1673ffffffffffffffffffffffffffffffffffffffff16815260200190815260200160002060008373ffffffffffffffffffffffffffffffffffffffff1673ffffffffffffffffffffffffffffffffffffffff16815260200190815260200160002060009054906101000a900460ff16905092915050565b600067ffffffffffffffff6040600860008573ffffffffffffffffffffffffffffffffffffffff1673ffffffffffffffffffffffffffffffffffffffff16815260200190815260200160002054901c169050919050565b50505050565b6000819050919050565b50505050565b6060600060028360026155d19190616a6f565b6155db91906169e8565b67ffffffffffffffff81111561561a577f4e487b7100000000000000000000000000000000000000000000000000000000600052604160045260246000fd5b6040519080825280601f01601f19166020018201604052801561564c5781602001600182028036833780820191505090505b5090507f3000000000000000000000000000000000000000000000000000000000000000816000815181106156aa577f4e487b7100000000000000000000000000000000000000000000000000000000600052603260045260246000fd5b60200101907effffffffffffffffffffffffffffffffffffffffffffffffffffffffffffff1916908160001a9053507f780000000000000000000000000000000000000000000000000000000000000081600181518110615734577f4e487b7100000000000000000000000000000000000000000000000000000000600052603260045260246000fd5b60200101907effffffffffffffffffffffffffffffffffffffffffffffffffffffffffffff1916908160001a905350600060018460026157749190616a6f565b61577e91906169e8565b90505b600181111561586a577f3031323334353637383961626364656600000000000000000000000000000000600f8616601081106157e6577f4e487b7100000000000000000000000000000000000000000000000000000000600052603260045260246000fd5b1a60f81b828281518110615823577f4e487b7100000000000000000000000000000000000000000000000000000000600052603260045260246000fd5b60200101907effffffffffffffffffffffffffffffffffffffffffffffffffffffffffffff1916908160001a905350600485901c94508061586390616c04565b9050615781565b50600084146158ae576040517f08c379a00000000000000000000000000000000000000000000000000000000081526004016158a590616818565b60405180910390fd5b8091505092915050565b60006003549050600073ffffffffffffffffffffffffffffffffffffffff168473ffffffffffffffffffffffffffffffffffffffff161415615926576040517f2e07630000000000000000000000000000000000000000000000000000000000815260040160405180910390fd5b6000831415615961576040517fb562e8dd00000000000000000000000000000000000000000000000000000000815260040160405180910390fd5b61596e60008583866155a8565b600160406001901b178302600860008673ffffffffffffffffffffffffffffffffffffffff1673ffffffffffffffffffffffffffffffffffffffff1681526020019081526020016000206000828254019250508190555060e16159d360018514615b6e565b901b60a042901b6159e3866155ae565b1717600760008381526020019081526020016000208190555060008190506000848201905060008673ffffffffffffffffffffffffffffffffffffffff163b14615ae7575b818673ffffffffffffffffffffffffffffffffffffffff16600073ffffffffffffffffffffffffffffffffffffffff167fddf252ad1be2c89b69c2b068fc378daa952ba7f163c4a11628f55a4df523b3ef60405160405180910390a4615a976000878480600101955087614fcb565b615acd576040517fd1a57ed600000000000000000000000000000000000000000000000000000000815260040160405180910390fd5b808210615a28578260035414615ae257600080fd5b615b52565b5b818060010192508673ffffffffffffffffffffffffffffffffffffffff16600073ffffffffffffffffffffffffffffffffffffffff167fddf252ad1be2c89b69c2b068fc378daa952ba7f163c4a11628f55a4df523b3ef60405160405180910390a4808210615ae8575b816003819055505050615b6860008583866155b8565b50505050565b6000819050919050565b828054615b8490616c2e565b90600052602060002090601f016020900481019282615ba65760008555615bed565b82601f10615bbf57805160ff1916838001178555615bed565b82800160010185558215615bed579182015b82811115615bec578251825591602001919060010190615bd1565b5b509050615bfa9190615bfe565b5090565b5b80821115615c17576000816000905550600101615bff565b5090565b6000615c2e615c298461690e565b6168e9565b905082815260208101848484011115615c4657600080fd5b615c51848285616bc2565b509392505050565b6000615c6c615c678461693f565b6168e9565b905082815260208101848484011115615c8457600080fd5b615c8f848285616bc2565b509392505050565b600081359050615ca681616fd8565b92915050565b600081519050615cbb81616fd8565b92915050565b60008083601f840112615cd357600080fd5b8235905067ffffffffffffffff811115615cec57600080fd5b602083019150836020820283011115615d0457600080fd5b9250929050565b60008083601f840112615d1d57600080fd5b8235905067ffffffffffffffff811115615d3657600080fd5b602083019150836020820283011115615d4e57600080fd5b9250929050565b60008083601f840112615d6757600080fd5b8235905067ffffffffffffffff811115615d8057600080fd5b602083019150836020820283011115615d9857600080fd5b9250929050565b600081359050615dae81616fef565b92915050565b600081359050615dc381617006565b92915050565b600081359050615dd88161701d565b92915050565b600081519050615ded8161701d565b92915050565b600082601f830112615e0457600080fd5b8135615e14848260208601615c1b565b91505092915050565b600082601f830112615e2e57600080fd5b8135615e3e848260208601615c59565b91505092915050565b600081359050615e5681617034565b92915050565b600081359050615e6b8161704b565b92915050565b600060208284031215615e8357600080fd5b6000615e9184828501615c97565b91505092915050565b600060208284031215615eac57600080fd5b6000615eba84828501615cac565b91505092915050565b60008060408385031215615ed657600080fd5b6000615ee485828601615c97565b9250506020615ef585828601615c97565b9150509250929050565b600080600060608486031215615f1457600080fd5b6000615f2286828701615c97565b9350506020615f3386828701615c97565b9250506040615f4486828701615e47565b9150509250925092565b60008060008060808587031215615f6457600080fd5b6000615f7287828801615c97565b9450506020615f8387828801615c97565b9350506040615f9487828801615e47565b925050606085013567ffffffffffffffff811115615fb157600080fd5b615fbd87828801615df3565b91505092959194509250565b60008060408385031215615fdc57600080fd5b6000615fea85828601615c97565b9250506020615ffb85828601615d9f565b9150509250929050565b6000806040838503121561601857600080fd5b600061602685828601615c97565b925050602061603785828601615e47565b9150509250929050565b6000806000806040858703121561605757600080fd5b600085013567ffffffffffffffff81111561607157600080fd5b61607d87828801615cc1565b9450945050602085013567ffffffffffffffff81111561609c57600080fd5b6160a887828801615d55565b925092505092959194509250565b600080602083850312156160c957600080fd5b600083013567ffffffffffffffff8111156160e357600080fd5b6160ef85828601615d0b565b92509250509250929050565b60006020828403121561610d57600080fd5b600061611b84828501615db4565b91505092915050565b6000806040838503121561613757600080fd5b600061614585828601615db4565b925050602061615685828601615c97565b9150509250929050565b60006020828403121561617257600080fd5b600061618084828501615dc9565b91505092915050565b60006020828403121561619b57600080fd5b60006161a984828501615dde565b91505092915050565b6000602082840312156161c457600080fd5b600082013567ffffffffffffffff8111156161de57600080fd5b6161ea84828501615e1d565b91505092915050565b60006020828403121561620557600080fd5b600061621384828501615e47565b91505092915050565b6000806040838503121561622f57600080fd5b600061623d85828601615e47565b925050602061624e85828601615e47565b9150509250929050565b60006020828403121561626a57600080fd5b600061627884828501615e5c565b91505092915050565b61628a81616afd565b82525050565b61629981616b0f565b82525050565b6162a881616b1b565b82525050565b60006162b98261699a565b6162c381856169b0565b93506162d3818560208601616bd1565b6162dc81616df6565b840191505092915050565b600081546162f481616c2e565b6162fe81866169c1565b94506001821660008114616319576001811461632a5761635d565b60ff1983168652818601935061635d565b61633385616970565b60005b8381101561635557815481890152600182019150602081019050616336565b838801955050505b50505092915050565b61636f81616b9e565b82525050565b6000616380826169a5565b61638a81856169cc565b935061639a818560208601616bd1565b6163a381616df6565b840191505092915050565b60006163b9826169a5565b6163c381856169dd565b93506163d3818560208601616bd1565b80840191505092915050565b600081546163ec81616c2e565b6163f681866169cc565b94506001821660008114616411576001811461642357616456565b60ff1983168652602086019350616456565b61642c85616985565b60005b8381101561644e5781548189015260018201915060208101905061642f565b808801955050505b50505092915050565b6000815461646c81616c2e565b61647681866169dd565b9450600182166000811461649157600181146164a2576164d5565b60ff198316865281860193506164d5565b6164ab85616985565b60005b838110156164cd578154818901526001820191506020810190506164ae565b838801955050505b50505092915050565b60006164eb6020836169cc565b91506164f682616e07565b602082019050919050565b600061650e600d836169dd565b915061651982616e30565b600d82019050919050565b60006165316026836169cc565b915061653c82616e59565b604082019050919050565b60006165546006836169dd565b915061655f82616ea8565b600682019050919050565b60006165776005836169dd565b915061658282616ed1565b600582019050919050565b600061659a6020836169cc565b91506165a582616efa565b602082019050919050565b60006165bd6017836169dd565b91506165c882616f23565b601782019050919050565b60006165e06011836169dd565b91506165eb82616f4c565b601182019050919050565b6000616603602f836169cc565b915061660e82616f75565b604082019050919050565b61662281616b84565b82525050565b61663181616bb0565b82525050565b61664081616b8e565b82525050565b600061665282846162e7565b915081905092915050565b6000616669828461645f565b915061667482616501565b915081905092915050565b600061668b828561645f565b915061669682616547565b91506166a282846163ae565b91506166ad8261656a565b91508190509392505050565b60006166c4826165b0565b91506166d082856163ae565b91506166db826165d3565b91506166e782846163ae565b91508190509392505050565b60006020820190506167086000830184616281565b92915050565b60006080820190506167236000830187616281565b6167306020830186616281565b61673d6040830185616619565b818103606083015261674f81846162ae565b905095945050505050565b600060408201905061676f6000830185616281565b61677c6020830184616619565b9392505050565b60006020820190506167986000830184616290565b92915050565b60006020820190506167b3600083018461629f565b92915050565b60006020820190506167ce6000830184616366565b92915050565b600060208201905081810360008301526167ee8184616375565b905092915050565b6000602082019050818103600083015261681081846163df565b905092915050565b60006020820190508181036000830152616831816164de565b9050919050565b6000602082019050818103600083015261685181616524565b9050919050565b600060208201905081810360008301526168718161658d565b9050919050565b60006020820190508181036000830152616891816165f6565b9050919050565b60006020820190506168ad6000830184616619565b92915050565b60006020820190506168c86000830184616628565b92915050565b60006020820190506168e36000830184616637565b92915050565b60006168f3616904565b90506168ff8282616c60565b919050565b6000604051905090565b600067ffffffffffffffff82111561692957616928616dc7565b5b61693282616df6565b9050602081019050919050565b600067ffffffffffffffff82111561695a57616959616dc7565b5b61696382616df6565b9050602081019050919050565b60008190508160005260206000209050919050565b60008190508160005260206000209050919050565b600081519050919050565b600081519050919050565b600082825260208201905092915050565b600081905092915050565b600082825260208201905092915050565b600081905092915050565b60006169f382616b84565b91506169fe83616b84565b9250827fffffffffffffffffffffffffffffffffffffffffffffffffffffffffffffffff03821115616a3357616a32616d0b565b5b828201905092915050565b6000616a4982616b84565b9150616a5483616b84565b925082616a6457616a63616d3a565b5b828204905092915050565b6000616a7a82616b84565b9150616a8583616b84565b9250817fffffffffffffffffffffffffffffffffffffffffffffffffffffffffffffffff0483118215151615616abe57616abd616d0b565b5b828202905092915050565b6000616ad482616b84565b9150616adf83616b84565b925082821015616af257616af1616d0b565b5b828203905092915050565b6000616b0882616b64565b9050919050565b60008115159050919050565b6000819050919050565b60007fffffffff0000000000000000000000000000000000000000000000000000000082169050919050565b6000819050616b5f82616fc4565b919050565b600073ffffffffffffffffffffffffffffffffffffffff82169050919050565b6000819050919050565b600063ffffffff82169050919050565b6000616ba982616b51565b9050919050565b6000616bbb82616b8e565b9050919050565b82818337600083830152505050565b60005b83811015616bef578082015181840152602081019050616bd4565b83811115616bfe576000848401525b50505050565b6000616c0f82616b84565b91506000821415616c2357616c22616d0b565b5b600182039050919050565b60006002820490506001821680616c4657607f821691505b60208210811415616c5a57616c59616d98565b5b50919050565b616c6982616df6565b810181811067ffffffffffffffff82111715616c8857616c87616dc7565b5b80604052505050565b6000616c9c82616b84565b91507fffffffffffffffffffffffffffffffffffffffffffffffffffffffffffffffff821415616ccf57616cce616d0b565b5b600182019050919050565b6000616ce582616b84565b9150616cf083616b84565b925082616d0057616cff616d3a565b5b828206905092915050565b7f4e487b7100000000000000000000000000000000000000000000000000000000600052601160045260246000fd5b7f4e487b7100000000000000000000000000000000000000000000000000000000600052601260045260246000fd5b7f4e487b7100000000000000000000000000000000000000000000000000000000600052602160045260246000fd5b7f4e487b7100000000000000000000000000000000000000000000000000000000600052602260045260246000fd5b7f4e487b7100000000000000000000000000000000000000000000000000000000600052604160045260246000fd5b6000601f19601f8301169050919050565b7f537472696e67733a20686578206c656e67746820696e73756666696369656e74600082015250565b7f636f6e74726163742e6a736f6e00000000000000000000000000000000000000600082015250565b7f4f776e61626c653a206e6577206f776e657220697320746865207a65726f206160008201527f6464726573730000000000000000000000000000000000000000000000000000602082015250565b7f746f6b656e2f0000000000000000000000000000000000000000000000000000600082015250565b7f2e6a736f6e000000000000000000000000000000000000000000000000000000600082015250565b7f4f776e61626c653a2063616c6c6572206973206e6f7420746865206f776e6572600082015250565b7f416363657373436f6e74726f6c3a206163636f756e7420000000000000000000600082015250565b7f206973206d697373696e6720726f6c6520000000000000000000000000000000600082015250565b7f416363657373436f6e74726f6c3a2063616e206f6e6c792072656e6f756e636560008201527f20726f6c657320666f722073656c660000000000000000000000000000000000602082015250565b60048110616fd557616fd4616d69565b5b50565b616fe181616afd565b8114616fec57600080fd5b50565b616ff881616b0f565b811461700357600080fd5b50565b61700f81616b1b565b811461701a57600080fd5b50565b61702681616b25565b811461703157600080fd5b50565b61703d81616b84565b811461704857600080fd5b50565b61705481616b8e565b811461705f57600080fd5b5056fea2646970667358221220aae180bb5abd6d1f8e9cbab4d7a3aded697b8bb40bf8742063d8b59862e6fa3264736f6c63430008040033",
  "linkReferences": {},
  "deployedLinkReferences": {}
}